{
  "address": "0x984B06553b696d813A0D2C4475ba9aF5405EeeEe",
  "abi": [
    {
      "inputs": [
        {
          "internalType": "address",
          "name": "_owner",
          "type": "address"
        }
      ],
      "stateMutability": "nonpayable",
      "type": "constructor"
    },
    {
      "anonymous": false,
      "inputs": [
        {
          "indexed": true,
          "internalType": "address",
          "name": "userId",
          "type": "address"
        },
        {
          "indexed": false,
          "internalType": "string",
          "name": "username",
          "type": "string"
        },
        {
          "indexed": false,
          "internalType": "string",
          "name": "platform",
          "type": "string"
        },
        {
          "indexed": false,
          "internalType": "uint128",
          "name": "reputationScore",
          "type": "uint128"
        },
        {
          "indexed": false,
          "internalType": "uint256",
          "name": "firstOffenseTimestamp",
          "type": "uint256"
        },
        {
          "indexed": false,
          "internalType": "uint256",
          "name": "lastOffenseTimestamp",
          "type": "uint256"
        },
        {
          "indexed": false,
          "internalType": "uint128",
          "name": "postCount",
          "type": "uint128"
        },
        {
          "indexed": false,
          "internalType": "uint128",
          "name": "offenseCount",
          "type": "uint128"
        }
      ],
      "name": "NewInfrigmentUser",
      "type": "event"
    },
    {
      "anonymous": false,
      "inputs": [
        {
          "indexed": true,
          "internalType": "uint256",
          "name": "recordId",
          "type": "uint256"
        },
        {
          "indexed": false,
          "internalType": "address",
          "name": "userId",
          "type": "address"
        },
        {
          "indexed": false,
          "internalType": "string",
          "name": "postText",
          "type": "string"
        },
        {
          "indexed": false,
          "internalType": "string",
          "name": "postUrl",
          "type": "string"
        },
        {
          "indexed": false,
          "internalType": "uint256",
          "name": "timestamp",
          "type": "uint256"
        },
        {
          "indexed": false,
          "internalType": "string",
          "name": "derivedContext",
          "type": "string"
        },
        {
          "indexed": false,
          "internalType": "string",
          "name": "derivedContextExplanation",
          "type": "string"
        },
        {
          "indexed": false,
          "internalType": "uint128",
          "name": "severityScore",
          "type": "uint128"
        }
      ],
      "name": "ReportedPost",
      "type": "event"
    },
    {
      "anonymous": false,
      "inputs": [
        {
          "indexed": true,
          "internalType": "address",
          "name": "userId",
          "type": "address"
        },
        {
          "indexed": false,
          "internalType": "uint128",
          "name": "reputationScore",
          "type": "uint128"
        },
        {
          "indexed": false,
          "internalType": "uint256",
          "name": "firstOffenseTimestamp",
          "type": "uint256"
        },
        {
          "indexed": false,
          "internalType": "uint256",
          "name": "lastOffenseTimestamp",
          "type": "uint256"
        },
        {
          "indexed": false,
          "internalType": "uint128",
          "name": "postCount",
          "type": "uint128"
        },
        {
          "indexed": false,
          "internalType": "uint128",
          "name": "offenseCount",
          "type": "uint128"
        }
      ],
      "name": "UpdateInfrigmentUser",
      "type": "event"
    },
    {
      "anonymous": false,
      "inputs": [
        {
          "indexed": true,
          "internalType": "uint256",
          "name": "recordId",
          "type": "uint256"
        },
        {
          "indexed": false,
          "internalType": "string",
          "name": "derivedContext",
          "type": "string"
        },
        {
          "indexed": false,
          "internalType": "string",
          "name": "derivedContextExplanation",
          "type": "string"
        },
        {
          "indexed": false,
          "internalType": "uint128",
          "name": "severityScore",
          "type": "uint128"
        }
      ],
      "name": "UpdatedReportedPost",
      "type": "event"
    },
    {
      "inputs": [
        {
          "components": [
            {
              "internalType": "address",
              "name": "userId",
              "type": "address"
            },
            {
              "internalType": "string",
              "name": "platform",
              "type": "string"
            },
            {
              "internalType": "string",
              "name": "username",
              "type": "string"
            },
            {
              "internalType": "uint128",
              "name": "postCount",
              "type": "uint128"
            },
            {
              "internalType": "uint128",
              "name": "offenseCount",
              "type": "uint128"
            },
            {
              "internalType": "uint256",
              "name": "firstOffenseTimestamp",
              "type": "uint256"
            },
            {
              "internalType": "uint256",
              "name": "lastOffenseTimestamp",
              "type": "uint256"
            },
            {
              "internalType": "uint128",
              "name": "reputationScore",
              "type": "uint128"
            }
          ],
          "internalType": "struct ICopyrightInfringementUser",
          "name": "_addUser",
          "type": "tuple"
        },
        {
          "components": [
            {
              "internalType": "uint256",
              "name": "recordId",
              "type": "uint256"
            },
            {
              "internalType": "address",
              "name": "userId",
              "type": "address"
            },
            {
              "internalType": "uint256",
              "name": "contentHash",
              "type": "uint256"
            },
            {
              "internalType": "string",
              "name": "postText",
              "type": "string"
            },
            {
              "internalType": "string",
              "name": "postUrl",
              "type": "string"
            },
            {
              "internalType": "uint256",
              "name": "timestamp",
              "type": "uint256"
            },
            {
              "internalType": "string",
              "name": "derivedContext",
              "type": "string"
            },
            {
              "internalType": "string",
              "name": "derivedContextExplanation",
              "type": "string"
            },
            {
              "internalType": "uint128",
              "name": "severityScore",
              "type": "uint128"
            }
          ],
          "internalType": "struct IReportedPost",
          "name": "_addPost",
          "type": "tuple"
        }
      ],
      "name": "AddInfringement",
      "outputs": [
        {
          "internalType": "bool",
          "name": "",
          "type": "bool"
        }
      ],
      "stateMutability": "nonpayable",
      "type": "function"
    },
    {
      "inputs": [
        {
          "internalType": "uint256",
          "name": "_contentHash",
          "type": "uint256"
        }
      ],
      "name": "GetReportedPost",
      "outputs": [
        {
          "components": [
            {
              "internalType": "uint256",
              "name": "recordId",
              "type": "uint256"
            },
            {
              "internalType": "address",
              "name": "userId",
              "type": "address"
            },
            {
              "internalType": "uint256",
              "name": "contentHash",
              "type": "uint256"
            },
            {
              "internalType": "string",
              "name": "postText",
              "type": "string"
            },
            {
              "internalType": "string",
              "name": "postUrl",
              "type": "string"
            },
            {
              "internalType": "uint256",
              "name": "timestamp",
              "type": "uint256"
            },
            {
              "internalType": "string",
              "name": "derivedContext",
              "type": "string"
            },
            {
              "internalType": "string",
              "name": "derivedContextExplanation",
              "type": "string"
            },
            {
              "internalType": "uint128",
              "name": "severityScore",
              "type": "uint128"
            }
          ],
          "internalType": "struct IReportedPost",
          "name": "",
          "type": "tuple"
        }
      ],
      "stateMutability": "view",
      "type": "function"
    },
    {
      "inputs": [
        {
          "internalType": "address",
          "name": "_userId",
          "type": "address"
        }
      ],
      "name": "GetReputationScore",
      "outputs": [
        {
          "internalType": "uint128",
          "name": "",
          "type": "uint128"
        }
      ],
      "stateMutability": "view",
      "type": "function"
    },
    {
      "inputs": [
        {
          "internalType": "address",
          "name": "_userId",
          "type": "address"
        },
        {
          "internalType": "uint128",
          "name": "_reputationScore",
          "type": "uint128"
        },
        {
          "internalType": "uint256",
          "name": "_firstOffenseTimestamp",
          "type": "uint256"
        },
        {
          "internalType": "uint256",
          "name": "_lastOffenseTimestamp",
          "type": "uint256"
        },
        {
          "internalType": "uint128",
          "name": "_postCount",
          "type": "uint128"
        },
        {
          "internalType": "uint128",
          "name": "_offenseCount",
          "type": "uint128"
        }
      ],
      "name": "UpdateCopyrightInfringementUser",
      "outputs": [
        {
          "internalType": "bool",
          "name": "",
          "type": "bool"
        }
      ],
      "stateMutability": "nonpayable",
      "type": "function"
    },
    {
      "inputs": [
        {
          "internalType": "uint256",
          "name": "_recordId",
          "type": "uint256"
        },
        {
          "internalType": "uint128",
          "name": "_severityScore",
          "type": "uint128"
        },
        {
          "internalType": "string",
          "name": "_derivedContext",
          "type": "string"
        },
        {
          "internalType": "string",
          "name": "_derivedContextExplanatio",
          "type": "string"
        }
      ],
      "name": "UpdatePost",
      "outputs": [
        {
          "internalType": "bool",
          "name": "",
          "type": "bool"
        }
      ],
      "stateMutability": "nonpayable",
      "type": "function"
    },
    {
      "inputs": [
        {
          "internalType": "uint256",
          "name": "",
          "type": "uint256"
        }
      ],
      "name": "contentHashPosts",
      "outputs": [
        {
          "internalType": "uint256",
          "name": "",
          "type": "uint256"
        }
      ],
      "stateMutability": "view",
      "type": "function"
    },
    {
      "inputs": [],
      "name": "greeting",
      "outputs": [
        {
          "internalType": "string",
          "name": "",
          "type": "string"
        }
      ],
      "stateMutability": "view",
      "type": "function"
    },
    {
      "inputs": [],
      "name": "owner",
      "outputs": [
        {
          "internalType": "address",
          "name": "",
          "type": "address"
        }
      ],
      "stateMutability": "view",
      "type": "function"
    },
    {
      "inputs": [
        {
          "internalType": "uint256",
          "name": "",
          "type": "uint256"
        }
      ],
      "name": "posts",
      "outputs": [
        {
          "internalType": "uint256",
          "name": "recordId",
          "type": "uint256"
        },
        {
          "internalType": "address",
          "name": "userId",
          "type": "address"
        },
        {
          "internalType": "uint256",
          "name": "contentHash",
          "type": "uint256"
        },
        {
          "internalType": "string",
          "name": "postText",
          "type": "string"
        },
        {
          "internalType": "string",
          "name": "postUrl",
          "type": "string"
        },
        {
          "internalType": "uint256",
          "name": "timestamp",
          "type": "uint256"
        },
        {
          "internalType": "string",
          "name": "derivedContext",
          "type": "string"
        },
        {
          "internalType": "string",
          "name": "derivedContextExplanation",
          "type": "string"
        },
        {
          "internalType": "uint128",
          "name": "severityScore",
          "type": "uint128"
        }
      ],
      "stateMutability": "view",
      "type": "function"
    },
    {
      "inputs": [
        {
          "internalType": "address",
          "name": "",
          "type": "address"
        }
      ],
      "name": "users",
      "outputs": [
        {
          "internalType": "address",
          "name": "userId",
          "type": "address"
        },
        {
          "internalType": "string",
          "name": "platform",
          "type": "string"
        },
        {
          "internalType": "string",
          "name": "username",
          "type": "string"
        },
        {
          "internalType": "uint128",
          "name": "postCount",
          "type": "uint128"
        },
        {
          "internalType": "uint128",
          "name": "offenseCount",
          "type": "uint128"
        },
        {
          "internalType": "uint256",
          "name": "firstOffenseTimestamp",
          "type": "uint256"
        },
        {
          "internalType": "uint256",
          "name": "lastOffenseTimestamp",
          "type": "uint256"
        },
        {
          "internalType": "uint128",
          "name": "reputationScore",
          "type": "uint128"
        }
      ],
      "stateMutability": "view",
      "type": "function"
    },
    {
      "inputs": [],
      "name": "withdraw",
      "outputs": [],
      "stateMutability": "nonpayable",
      "type": "function"
    },
    {
      "stateMutability": "payable",
      "type": "receive"
    }
  ],
  "transactionHash": "0xa6164019969b4870709d8ae6078c3b0688f106bf6801ca75b086b13e0dd8c227",
  "args": [
    "0x5C834344F33d1E7eB8306149B2E57D2f4c1625C9"
  ],
  "numDeployments": 1,
  "solcInputHash": "5bc9b0e85e8f7d731bf9a7599f051266",
  "bytecode": "0x60e0604052600e60a09081526d426520676f6f6420746f2049502160901b60c0526000906200002f908262000117565b503480156200003d57600080fd5b5060405162001fa638038062001fa68339810160408190526200006091620001e3565b6001600160a01b031660805262000215565b634e487b7160e01b600052604160045260246000fd5b600181811c908216806200009d57607f821691505b602082108103620000be57634e487b7160e01b600052602260045260246000fd5b50919050565b601f8211156200011257600081815260208120601f850160051c81016020861015620000ed5750805b601f850160051c820191505b818110156200010e57828155600101620000f9565b5050505b505050565b81516001600160401b0381111562000133576200013362000072565b6200014b8162000144845462000088565b84620000c4565b602080601f8311600181146200018357600084156200016a5750858301515b600019600386901b1c1916600185901b1785556200010e565b600085815260208120601f198616915b82811015620001b45788860151825594840194600190910190840162000193565b5085821015620001d35787850151600019600388901b60f8161c191681555b5050505050600190811b01905550565b600060208284031215620001f657600080fd5b81516001600160a01b03811681146200020e57600080fd5b9392505050565b608051611d5262000254600039600081816102050152818161055d01528181610663015281816106a401528181610f3601526112500152611d526000f3fe6080604052600436106100a05760003560e01c8063784f901d11610064578063784f901d146101995780638da5cb5b146101f3578063a87430ba1461023f578063cc52d02614610273578063e42c217814610293578063ef690cc0146102b357600080fd5b80630b1e7f83146100ac57806333432ac7146100ea5780633ccfd60b1461011a57806343b04a0a146101315780636468a8491461015e57600080fd5b366100a757005b600080fd5b3480156100b857600080fd5b506100cc6100c73660046113ff565b6102d5565b6040516100e19998979695949392919061145e565b60405180910390f35b3480156100f657600080fd5b5061010a610105366004611600565b610550565b60405190151581526020016100e1565b34801561012657600080fd5b5061012f610658565b005b34801561013d57600080fd5b5061015161014c3660046113ff565b61075d565b6040516100e1919061167e565b34801561016a57600080fd5b5061018b6101793660046113ff565b60036020526000908152604090205481565b6040519081526020016100e1565b3480156101a557600080fd5b506101db6101b436600461176f565b6001600160a01b03166000908152600160205260409020600601546001600160801b031690565b6040516001600160801b0390911681526020016100e1565b3480156101ff57600080fd5b506102277f000000000000000000000000000000000000000000000000000000000000000081565b6040516001600160a01b0390911681526020016100e1565b34801561024b57600080fd5b5061025f61025a36600461176f565b610dbb565b6040516100e1989796959493929190611791565b34801561027f57600080fd5b5061010a61028e366004611902565b610f29565b34801561029f57600080fd5b5061010a6102ae366004611a11565b611243565b3480156102bf57600080fd5b506102c8611371565b6040516100e19190611a77565b6002602081905260009182526040909120805460018201549282015460038301805492946001600160a01b031693919261030e90611a8a565b80601f016020809104026020016040519081016040528092919081815260200182805461033a90611a8a565b80156103875780601f1061035c57610100808354040283529160200191610387565b820191906000526020600020905b81548152906001019060200180831161036a57829003601f168201915b50505050509080600401805461039c90611a8a565b80601f01602080910402602001604051908101604052809291908181526020018280546103c890611a8a565b80156104155780601f106103ea57610100808354040283529160200191610415565b820191906000526020600020905b8154815290600101906020018083116103f857829003601f168201915b50505050509080600501549080600601805461043090611a8a565b80601f016020809104026020016040519081016040528092919081815260200182805461045c90611a8a565b80156104a95780601f1061047e576101008083540402835291602001916104a9565b820191906000526020600020905b81548152906001019060200180831161048c57829003601f168201915b5050505050908060070180546104be90611a8a565b80601f01602080910402602001604051908101604052809291908181526020018280546104ea90611a8a565b80156105375780601f1061050c57610100808354040283529160200191610537565b820191906000526020600020905b81548152906001019060200180831161051a57829003601f168201915b505050600890930154919250506001600160801b031689565b6000336001600160a01b037f000000000000000000000000000000000000000000000000000000000000000016146105a35760405162461bcd60e51b815260040161059a90611ac4565b60405180910390fd5b600085815260026020819052604090912001541561064d5760008581526002602052604090206008810180546001600160801b0319166001600160801b0387161790556006016105f38482611b3a565b50600085815260026020526040902060070161060f8382611b3a565b50847f8ddfcc44b666de67165289bff708991845dfef09de07e721a84f409114806a2184848760405161064493929190611bfa565b60405180910390a25b506001949350505050565b336001600160a01b037f000000000000000000000000000000000000000000000000000000000000000016146106a05760405162461bcd60e51b815260040161059a90611ac4565b60007f00000000000000000000000000000000000000000000000000000000000000006001600160a01b03164760405160006040518083038185875af1925050503d806000811461070d576040519150601f19603f3d011682016040523d82523d6000602084013e610712565b606091505b505090508061075a5760405162461bcd60e51b81526020600482015260146024820152732330b4b632b2103a379039b2b7321022ba3432b960611b604482015260640161059a565b50565b6107be6040518061012001604052806000815260200160006001600160a01b0316815260200160008152602001606081526020016060815260200160008152602001606081526020016060815260200160006001600160801b031681525090565b60008281526003602052604090205415610a93576000828152600360208181526040808420548085526002808452948290208251610120810184528154815260018201546001600160a01b031694810194909452948501549183019190915291830180549293919260608401919061083590611a8a565b80601f016020809104026020016040519081016040528092919081815260200182805461086190611a8a565b80156108ae5780601f10610883576101008083540402835291602001916108ae565b820191906000526020600020905b81548152906001019060200180831161089157829003601f168201915b505050505081526020016004820180546108c790611a8a565b80601f01602080910402602001604051908101604052809291908181526020018280546108f390611a8a565b80156109405780601f1061091557610100808354040283529160200191610940565b820191906000526020600020905b81548152906001019060200180831161092357829003601f168201915b505050505081526020016005820154815260200160068201805461096390611a8a565b80601f016020809104026020016040519081016040528092919081815260200182805461098f90611a8a565b80156109dc5780601f106109b1576101008083540402835291602001916109dc565b820191906000526020600020905b8154815290600101906020018083116109bf57829003601f168201915b505050505081526020016007820180546109f590611a8a565b80601f0160208091040260200160405190810160405280929190818152602001828054610a2190611a8a565b8015610a6e5780601f10610a4357610100808354040283529160200191610a6e565b820191906000526020600020905b815481529060010190602001808311610a5157829003601f168201915b5050509183525050600891909101546001600160801b03166020909101529392505050565b600080526002602090815260408051610120810182527fac33ff75c19e70fe83507db0d683fd3465c996598dc972688b7ace676c89077b805482527fac33ff75c19e70fe83507db0d683fd3465c996598dc972688b7ace676c89077c546001600160a01b0316938201939093527fac33ff75c19e70fe83507db0d683fd3465c996598dc972688b7ace676c89077d54918101919091527fac33ff75c19e70fe83507db0d683fd3465c996598dc972688b7ace676c89077e8054919291606084019190610b5e90611a8a565b80601f0160208091040260200160405190810160405280929190818152602001828054610b8a90611a8a565b8015610bd75780601f10610bac57610100808354040283529160200191610bd7565b820191906000526020600020905b815481529060010190602001808311610bba57829003601f168201915b50505050508152602001600482018054610bf090611a8a565b80601f0160208091040260200160405190810160405280929190818152602001828054610c1c90611a8a565b8015610c695780601f10610c3e57610100808354040283529160200191610c69565b820191906000526020600020905b815481529060010190602001808311610c4c57829003601f168201915b5050505050815260200160058201548152602001600682018054610c8c90611a8a565b80601f0160208091040260200160405190810160405280929190818152602001828054610cb890611a8a565b8015610d055780601f10610cda57610100808354040283529160200191610d05565b820191906000526020600020905b815481529060010190602001808311610ce857829003601f168201915b50505050508152602001600782018054610d1e90611a8a565b80601f0160208091040260200160405190810160405280929190818152602001828054610d4a90611a8a565b8015610d975780601f10610d6c57610100808354040283529160200191610d97565b820191906000526020600020905b815481529060010190602001808311610d7a57829003601f168201915b5050509183525050600891909101546001600160801b031660209091015292915050565b6001602081905260009182526040909120805491810180546001600160a01b0390931692610de890611a8a565b80601f0160208091040260200160405190810160405280929190818152602001828054610e1490611a8a565b8015610e615780601f10610e3657610100808354040283529160200191610e61565b820191906000526020600020905b815481529060010190602001808311610e4457829003601f168201915b505050505090806002018054610e7690611a8a565b80601f0160208091040260200160405190810160405280929190818152602001828054610ea290611a8a565b8015610eef5780601f10610ec457610100808354040283529160200191610eef565b820191906000526020600020905b815481529060010190602001808311610ed257829003601f168201915b50505060038401546004850154600586015460069096015494956001600160801b0380841696600160801b90940481169550919350911688565b6000336001600160a01b037f00000000000000000000000000000000000000000000000000000000000000001614610f735760405162461bcd60e51b815260040161059a90611ac4565b82516001600160a01b039081166000908152600160208181526040909220865181546001600160a01b031916941693909317835590850151859291820190610fbb9082611b3a565b5060408201516002820190610fd09082611b3a565b50606082015160808301516001600160801b03918216600160801b918316919091021760038381019190915560a0840151600484015560c0840151600584015560e090930151600690920180546001600160801b0319169282169290921790915584516001600160a01b03166000908152600160205260408120909201541690036110865782516001600160a01b0316600090815260016020819052604090912060030180546001600160801b03191690911790555b815160009081526002602081815260409283902085518155908501516001820180546001600160a01b0319166001600160a01b039092169190911790559184015190820155606083015183919060038201906110e29082611b3a565b50608082015160048201906110f79082611b3a565b5060a0820151600582015560c082015160068201906111169082611b3a565b5060e0820151600782019061112b9082611b3a565b506101009182015160089190910180546001600160801b0319166001600160801b03909216919091179055825160408085015160009081526003602090815290829020929092558451918501516060860151608087015160a088015160c089015160e08a0151978a0151955196977fe74483b98229ceaf67050395678c82eff7b6d0161a2499db0aeddcb9cc181896976111c59790611c39565b60405180910390a282600001516001600160a01b03167f073c39ab603de800ddba8d4e7faa74e448d1c4908a0d38e1ac1e4a2971eaf492846040015185602001518660e001518760a001518860c0015189606001518a608001516040516112329796959493929190611cbb565b60405180910390a250600192915050565b6000336001600160a01b037f0000000000000000000000000000000000000000000000000000000000000000161461128d5760405162461bcd60e51b815260040161059a90611ac4565b6001600160a01b0387166000908152600160205260409020600301546001600160801b031615611364576001600160a01b0387166000818152600160209081526040918290206006810180546001600160801b038c81166001600160801b03199092168217909255600483018b9055600583018a9055878216600160801b8102928a1692831760039094019390935584519081529283018a90528284018990526060830152608082015290517f11b9de0bab8e1f1ee99f6225000a751ec272fc7a1d6a55cf1b3739ab0c9bad569181900360a00190a25b5060019695505050505050565b6000805461137e90611a8a565b80601f01602080910402602001604051908101604052809291908181526020018280546113aa90611a8a565b80156113f75780601f106113cc576101008083540402835291602001916113f7565b820191906000526020600020905b8154815290600101906020018083116113da57829003601f168201915b505050505081565b60006020828403121561141157600080fd5b5035919050565b6000815180845260005b8181101561143e57602081850181015186830182015201611422565b506000602082860101526020601f19601f83011685010191505092915050565b8981526001600160a01b038916602082015260408101889052610120606082018190526000906114908382018a611418565b905082810360808401526114a48189611418565b90508660a084015282810360c08401526114be8187611418565b905082810360e08401526114d28186611418565b9150506001600160801b0383166101008301529a9950505050505050505050565b80356001600160801b038116811461150a57600080fd5b919050565b634e487b7160e01b600052604160045260246000fd5b604051610120810167ffffffffffffffff811182821017156115495761154961150f565b60405290565b604051610100810167ffffffffffffffff811182821017156115495761154961150f565b600082601f83011261158457600080fd5b813567ffffffffffffffff8082111561159f5761159f61150f565b604051601f8301601f19908116603f011681019082821181831017156115c7576115c761150f565b816040528381528660208588010111156115e057600080fd5b836020870160208301376000602085830101528094505050505092915050565b6000806000806080858703121561161657600080fd5b84359350611626602086016114f3565b9250604085013567ffffffffffffffff8082111561164357600080fd5b61164f88838901611573565b9350606087013591508082111561166557600080fd5b5061167287828801611573565b91505092959194509250565b6020815281516020820152600060208301516116a560408401826001600160a01b03169052565b506040830151606083015260608301516101208060808501526116cc610140850183611418565b91506080850151601f19808685030160a08701526116ea8483611418565b935060a087015160c087015260c08701519150808685030160e08701526117118483611418565b935060e087015191506101008187860301818801526117308584611418565b9450808801519250505061174e828601826001600160801b03169052565b5090949350505050565b80356001600160a01b038116811461150a57600080fd5b60006020828403121561178157600080fd5b61178a82611758565b9392505050565b6001600160a01b0389168152610100602082018190526000906117b68382018b611418565b905082810360408401526117ca818a611418565b9150506001600160801b03808816606084015280871660808401528560a08401528460c084015280841660e0840152509998505050505050505050565b6000610120828403121561181a57600080fd5b611822611525565b90508135815261183460208301611758565b602082015260408201356040820152606082013567ffffffffffffffff8082111561185e57600080fd5b61186a85838601611573565b6060840152608084013591508082111561188357600080fd5b61188f85838601611573565b608084015260a084013560a084015260c08401359150808211156118b257600080fd5b6118be85838601611573565b60c084015260e08401359150808211156118d757600080fd5b506118e484828501611573565b60e0830152506101006118f88184016114f3565b9082015292915050565b6000806040838503121561191557600080fd5b823567ffffffffffffffff8082111561192d57600080fd5b90840190610100828703121561194257600080fd5b61194a61154f565b61195383611758565b815260208301358281111561196757600080fd5b61197388828601611573565b60208301525060408301358281111561198b57600080fd5b61199788828601611573565b6040830152506119a9606084016114f3565b60608201526119ba608084016114f3565b608082015260a083013560a082015260c083013560c08201526119df60e084016114f3565b60e0820152935060208501359150808211156119fa57600080fd5b50611a0785828601611807565b9150509250929050565b60008060008060008060c08789031215611a2a57600080fd5b611a3387611758565b9550611a41602088016114f3565b94506040870135935060608701359250611a5d608088016114f3565b9150611a6b60a088016114f3565b90509295509295509295565b60208152600061178a6020830184611418565b600181811c90821680611a9e57607f821691505b602082108103611abe57634e487b7160e01b600052602260045260246000fd5b50919050565b6020808252600d908201526c2737ba103a34329027bbb732b960991b604082015260600190565b601f821115611b3557600081815260208120601f850160051c81016020861015611b125750805b601f850160051c820191505b81811015611b3157828155600101611b1e565b5050505b505050565b815167ffffffffffffffff811115611b5457611b5461150f565b611b6881611b628454611a8a565b84611aeb565b602080601f831160018114611b9d5760008415611b855750858301515b600019600386901b1c1916600185901b178555611b31565b600085815260208120601f198616915b82811015611bcc57888601518255948401946001909101908401611bad565b5085821015611bea5787850151600019600388901b60f8161c191681555b5050505050600190811b01905550565b606081526000611c0d6060830186611418565b8281036020840152611c1f8186611418565b9150506001600160801b0383166040830152949350505050565b6001600160a01b038816815260e060208201819052600090611c5d90830189611418565b8281036040840152611c6f8189611418565b90508660608401528281036080840152611c898187611418565b905082810360a0840152611c9d8186611418565b9150506001600160801b03831660c083015298975050505050505050565b60e081526000611cce60e083018a611418565b8281036020840152611ce0818a611418565b9150506001600160801b03808816604084015286606084015285608084015280851660a084015280841660c0840152509897505050505050505056fea2646970667358221220bd7034bd7a48d2f413526c6c915c6e22317aad573a6e199ead00b1a09dfeb7b264736f6c63430008140033",
  "devdoc": {
    "kind": "dev",
    "methods": {},
    "version": 1
  },
  "userdoc": {
    "kind": "user",
    "methods": {
      "AddInfringement((address,string,string,uint128,uint128,uint256,uint256,uint128),(uint256,address,uint256,string,string,uint256,string,string,uint128))": {
        "notice": "Function that allows the owner to add new infringements"
      },
      "GetReportedPost(uint256)": {
        "notice": "Function to get post by hash"
      },
      "GetReputationScore(address)": {
        "notice": "Function to get reputation score of a user"
      },
      "UpdateCopyrightInfringementUser(address,uint128,uint256,uint256,uint128,uint128)": {
        "notice": "Function that allows the owner to update an infringement user"
      },
      "UpdatePost(uint256,uint128,string,string)": {
        "notice": "Function that allows the owner to update an infringement user"
      },
      "withdraw()": {
        "notice": "Function that allows the owner to withdraw all the Ether in the contract The function can only be called by the owner of the contract as defined by the isOwner modifier"
      }
    },
    "version": 1
  },
  "storageLayout": {
    "storage": [
      {
        "astId": 42,
        "contract": "contracts/ReputationAgent.sol:ReputationAgent",
        "label": "greeting",
        "offset": 0,
        "slot": "0",
        "type": "t_string_storage"
      },
      {
        "astId": 49,
        "contract": "contracts/ReputationAgent.sol:ReputationAgent",
        "label": "users",
        "offset": 0,
        "slot": "1",
        "type": "t_mapping(t_address,t_struct(ICopyrightInfringementUser)20_storage)"
      },
      {
        "astId": 54,
        "contract": "contracts/ReputationAgent.sol:ReputationAgent",
        "label": "posts",
        "offset": 0,
        "slot": "2",
        "type": "t_mapping(t_uint256,t_struct(IReportedPost)39_storage)"
      },
      {
        "astId": 58,
        "contract": "contracts/ReputationAgent.sol:ReputationAgent",
        "label": "contentHashPosts",
        "offset": 0,
        "slot": "3",
        "type": "t_mapping(t_uint256,t_uint256)"
      }
    ],
    "types": {
      "t_address": {
        "encoding": "inplace",
        "label": "address",
        "numberOfBytes": "20"
      },
      "t_mapping(t_address,t_struct(ICopyrightInfringementUser)20_storage)": {
        "encoding": "mapping",
        "key": "t_address",
        "label": "mapping(address => struct ICopyrightInfringementUser)",
        "numberOfBytes": "32",
        "value": "t_struct(ICopyrightInfringementUser)20_storage"
      },
      "t_mapping(t_uint256,t_struct(IReportedPost)39_storage)": {
        "encoding": "mapping",
        "key": "t_uint256",
        "label": "mapping(uint256 => struct IReportedPost)",
        "numberOfBytes": "32",
        "value": "t_struct(IReportedPost)39_storage"
      },
      "t_mapping(t_uint256,t_uint256)": {
        "encoding": "mapping",
        "key": "t_uint256",
        "label": "mapping(uint256 => uint256)",
        "numberOfBytes": "32",
        "value": "t_uint256"
      },
      "t_string_storage": {
        "encoding": "bytes",
        "label": "string",
        "numberOfBytes": "32"
      },
      "t_struct(ICopyrightInfringementUser)20_storage": {
        "encoding": "inplace",
        "label": "struct ICopyrightInfringementUser",
        "members": [
          {
            "astId": 5,
            "contract": "contracts/ReputationAgent.sol:ReputationAgent",
            "label": "userId",
            "offset": 0,
            "slot": "0",
            "type": "t_address"
          },
          {
            "astId": 7,
            "contract": "contracts/ReputationAgent.sol:ReputationAgent",
            "label": "platform",
            "offset": 0,
            "slot": "1",
            "type": "t_string_storage"
          },
          {
            "astId": 9,
            "contract": "contracts/ReputationAgent.sol:ReputationAgent",
            "label": "username",
            "offset": 0,
            "slot": "2",
            "type": "t_string_storage"
          },
          {
            "astId": 11,
            "contract": "contracts/ReputationAgent.sol:ReputationAgent",
            "label": "postCount",
            "offset": 0,
            "slot": "3",
            "type": "t_uint128"
          },
          {
            "astId": 13,
            "contract": "contracts/ReputationAgent.sol:ReputationAgent",
            "label": "offenseCount",
            "offset": 16,
            "slot": "3",
            "type": "t_uint128"
          },
          {
            "astId": 15,
            "contract": "contracts/ReputationAgent.sol:ReputationAgent",
            "label": "firstOffenseTimestamp",
            "offset": 0,
            "slot": "4",
            "type": "t_uint256"
          },
          {
            "astId": 17,
            "contract": "contracts/ReputationAgent.sol:ReputationAgent",
            "label": "lastOffenseTimestamp",
            "offset": 0,
            "slot": "5",
            "type": "t_uint256"
          },
          {
            "astId": 19,
            "contract": "contracts/ReputationAgent.sol:ReputationAgent",
            "label": "reputationScore",
            "offset": 0,
            "slot": "6",
            "type": "t_uint128"
          }
        ],
        "numberOfBytes": "224"
      },
      "t_struct(IReportedPost)39_storage": {
        "encoding": "inplace",
        "label": "struct IReportedPost",
        "members": [
          {
            "astId": 22,
            "contract": "contracts/ReputationAgent.sol:ReputationAgent",
            "label": "recordId",
            "offset": 0,
            "slot": "0",
            "type": "t_uint256"
          },
          {
            "astId": 24,
            "contract": "contracts/ReputationAgent.sol:ReputationAgent",
            "label": "userId",
            "offset": 0,
            "slot": "1",
            "type": "t_address"
          },
          {
            "astId": 26,
            "contract": "contracts/ReputationAgent.sol:ReputationAgent",
            "label": "contentHash",
            "offset": 0,
            "slot": "2",
            "type": "t_uint256"
          },
          {
            "astId": 28,
            "contract": "contracts/ReputationAgent.sol:ReputationAgent",
            "label": "postText",
            "offset": 0,
            "slot": "3",
            "type": "t_string_storage"
          },
          {
            "astId": 30,
            "contract": "contracts/ReputationAgent.sol:ReputationAgent",
            "label": "postUrl",
            "offset": 0,
            "slot": "4",
            "type": "t_string_storage"
          },
          {
            "astId": 32,
            "contract": "contracts/ReputationAgent.sol:ReputationAgent",
            "label": "timestamp",
            "offset": 0,
            "slot": "5",
            "type": "t_uint256"
          },
          {
            "astId": 34,
            "contract": "contracts/ReputationAgent.sol:ReputationAgent",
            "label": "derivedContext",
            "offset": 0,
            "slot": "6",
            "type": "t_string_storage"
          },
          {
            "astId": 36,
            "contract": "contracts/ReputationAgent.sol:ReputationAgent",
            "label": "derivedContextExplanation",
            "offset": 0,
            "slot": "7",
            "type": "t_string_storage"
          },
          {
            "astId": 38,
            "contract": "contracts/ReputationAgent.sol:ReputationAgent",
            "label": "severityScore",
            "offset": 0,
            "slot": "8",
            "type": "t_uint128"
          }
        ],
        "numberOfBytes": "288"
      },
      "t_uint128": {
        "encoding": "inplace",
        "label": "uint128",
        "numberOfBytes": "16"
      },
      "t_uint256": {
        "encoding": "inplace",
        "label": "uint256",
        "numberOfBytes": "32"
      }
    }
  }
}